:100000000C942A000C943C000C943C000C943C0092
:100010000C942E020C9453020C943C000C943C0063
:100020000C943C000C9494020C94C8010C94ED01C7
:100030000C943C000C943C000C943C000C943C0050
:100040000C943C000C943C000C943C000C943C0040
:100050000C943C0011241FBECFE5D8E0DEBFCDBF1D
:1000600010E0A0E6B0E001C01D92AC36B107E1F7A8
:100070000E94BF010C942D030C940000DF93CF93DA
:1000800000D000D000D0CDB7DEB79E838D831A821A
:1000900019828D819E81969587959C838B8312C052
:1000A0008091690090916A0090936500809364004C
:1000B000019690936A008093690089819A810196E4
:1000C0009A8389838091690090916A008F3F91059E
:1000D00039F329813A818B819C812817390701F7EF
:1000E0002D813E818B819C81A901481B590BCA013E
:1000F0009E838D8305C08D819E8101979E838D8314
:100100002D813E8189819A8182179307A0F312C0C5
:100110008091690090916A009093650080936400DB
:10012000019790936A008093690089819A81019771
:100130009A8389838091690090916A00009741F3C6
:1001400089819A81009721F780E026960FB6F8946E
:10015000DEBF0FBECDBFCF91DF910895DF93CF9368
:1001600000D000D00F92CDB7DEB78B837D836C8338
:100170008C819D81009721F08130910549F00FC05D
:1001800081E080936B0080916B008093660009C0D2
:1001900010926B0080916B008093660002C081E03A
:1001A00013C08B81482F50E028EE33E0429FC001FE
:1001B000439F900D529F900D11249A8389838981CA
:1001C0009A810E943E0080E00F900F900F900F9058
:1001D0000F90CF91DF910895DF93CF9300D000D09F
:1001E000CDB7DEB78A837C836B838B819C81813022
:1001F000910549F08230910561F41092660081E02A
:1002000080936B0008C081E08093660010926B00C1
:1002100002C081E01AC08A81482F50E028E833E10B
:10022000429FC001439F900D529F900D112424EBDB
:1002300030E0B9010E9406039B01C90189838981CD
:10024000882F90E00E943E0080E00F900F900F906A
:100250000F90CF91DF910895DF93CF93CDB7DEB7A5
:1002600010926A001092690010926500109264006A
:1002700082E590E024EBFC01208384E490E024EB11
:10028000FC0120838CE490E02FEF39EFFC013183F7
:1002900020838CE590E02EEBFC01208383E590E049
:1002A00022E0FC01208383E490E02EEBFC0120831C
:1002B00085E490E022E0FC0120838EE490E024E0DD
:1002C000FC01208389E590E029E530E0F9012081F7
:1002D0002B6CFC0120837894CF91DF910895DF93FC
:1002E000CF93CDB7DEB784E390E027EEFC01208307
:1002F00081E390E02FE0FC01208382E390E020E3A3
:10030000FC01208387E390E0FC01108288E390E009
:100310002FE0FC012083CF91DF910895DF93CF93ED
:10032000CDB7DEB781E0CF91DF910895DF93CF9312
:10033000CDB7DEB70E946F010E942C010E948E0192
:1003400080E0CF91DF910895DF93CF93CDB7DEB7F3
:1003500084E160E070E00E94AE0084E161E070E062
:100360000E94AE0084EB62E070E00E94EC0084EB3F
:1003700063E070E00E94EC00CF91DF910895DF937D
:10038000CF93CDB7DEB70E9496010E94A401FDCFA6
:100390001F920F920FB60F9211242F933F938F93BA
:1003A0009F93EF93FF93DF93CF93CDB7DEB785E3B2
:1003B00090E025E330E0F90120812760FC012083F3
:1003C000CF91DF91FF91EF919F918F913F912F916D
:1003D0000F900FBE0F901F9018951F920F920FB69F
:1003E0000F9211242F933F938F939F93EF93FF933B
:1003F000DF93CF93CDB7DEB783E590E0FC011082A9
:1004000082E590E024EBFC01208383E590E022E08C
:10041000FC01208380916600882351F085E390E001
:1004200025E330E0F90120812E7FFC01208309C003
:1004300085E390E025E330E0F90120812D7FFC0188
:100440002083CF91DF91FF91EF919F918F913F9109
:100450002F910F900FBE0F901F9018951F920F9223
:100460000FB60F9211242F933F938F939F93EF9387
:10047000FF93DF93CF93CDB7DEB785E390E025E31D
:1004800030E0F9012081206EFC012083CF91DF91C3
:10049000FF91EF919F918F913F912F910F900FBE00
:1004A0000F901F9018951F920F920FB60F92112464
:1004B0002F933F938F939F93EF93FF93DF93CF936C
:1004C000CDB7DEB785E490E0FC01108284E490E0D3
:1004D00024EBFC01208385E490E022E0FC012083F2
:1004E00080916B00882351F085E390E025E330E0B4
:1004F000F90120812F7DFC01208309C085E390E074
:1005000025E330E0F90120812F7BFC012083CF918E
:10051000DF91FF91EF919F918F913F912F910F90DC
:100520000FBE0F901F9018951F920F920FB60F924B
:1005300011242F933F938F939F93EF93FF93DF9318
:10054000CF93CDB7DEB78EE490E0FC0110828091AE
:10055000600090916100019690936100809360002B
:100560002091600030916100809162009091630061
:100570002817390749F482E390E022E330E0F901DB
:1005800020812E7FFC01208380916000909161008A
:10059000883C910511F510926100109260008091E5
:1005A0006200909163008531910550F48091620062
:1005B000909163000196909363008093620004C061
:1005C000109263001092620082E390E022E330E038
:1005D000F90120812160FC0120838CE490E02FEF61
:1005E00039EFFC01318320838EE490E024E0FC01AC
:1005F0002083CF91DF91FF91EF919F918F913F9158
:100600002F910F900FBE0F901F90189597FB092EFA
:1006100007260AD077FD04D00CD006D000201AF4AB
:10062000709561957F4F0895F6F7909581959F4F4E
:100630000895AA1BBB1B51E107C0AA1FBB1FA61729
:10064000B70710F0A61BB70B881F991F5A95A9F77B
:0E06500080959095BC01CD010895F894FFCFE0
:00000001FF
